{
  "_format": "hh-sol-artifact-1",
  "contractName": "BookLibrary",
  "sourceName": "contracts/BookLibrary.sol",
  "abi": [
    {
      "anonymous": false,
      "inputs": [
        {
          "indexed": false,
          "internalType": "bytes32",
          "name": "bookKey",
          "type": "bytes32"
        },
        {
          "indexed": false,
          "internalType": "string",
          "name": "title",
          "type": "string"
        },
        {
          "indexed": false,
          "internalType": "uint256",
          "name": "copies",
          "type": "uint256"
        }
      ],
      "name": "BookAdded",
      "type": "event"
    },
    {
      "anonymous": false,
      "inputs": [
        {
          "indexed": false,
          "internalType": "bytes32",
          "name": "bookKey",
          "type": "bytes32"
        },
        {
          "indexed": false,
          "internalType": "address",
          "name": "borrower",
          "type": "address"
        },
        {
          "indexed": false,
          "internalType": "uint256",
          "name": "copiesAvailable",
          "type": "uint256"
        }
      ],
      "name": "BookBorrowed",
      "type": "event"
    },
    {
      "anonymous": false,
      "inputs": [
        {
          "indexed": false,
          "internalType": "bytes32",
          "name": "bookKey",
          "type": "bytes32"
        },
        {
          "indexed": false,
          "internalType": "address",
          "name": "borrower",
          "type": "address"
        },
        {
          "indexed": false,
          "internalType": "uint256",
          "name": "copiesAvailable",
          "type": "uint256"
        }
      ],
      "name": "BookReturned",
      "type": "event"
    },
    {
      "anonymous": false,
      "inputs": [
        {
          "indexed": false,
          "internalType": "bytes32",
          "name": "bookKey",
          "type": "bytes32"
        },
        {
          "indexed": false,
          "internalType": "string",
          "name": "title",
          "type": "string"
        },
        {
          "indexed": false,
          "internalType": "uint256",
          "name": "copies",
          "type": "uint256"
        }
      ],
      "name": "BookUpdated",
      "type": "event"
    },
    {
      "anonymous": false,
      "inputs": [
        {
          "indexed": true,
          "internalType": "address",
          "name": "previousOwner",
          "type": "address"
        },
        {
          "indexed": true,
          "internalType": "address",
          "name": "newOwner",
          "type": "address"
        }
      ],
      "name": "OwnershipTransferred",
      "type": "event"
    },
    {
      "inputs": [
        {
          "internalType": "string",
          "name": "_title",
          "type": "string"
        },
        {
          "internalType": "uint8",
          "name": "_copies",
          "type": "uint8"
        }
      ],
      "name": "addBook",
      "outputs": [],
      "stateMutability": "nonpayable",
      "type": "function"
    },
    {
      "inputs": [
        {
          "internalType": "uint256",
          "name": "",
          "type": "uint256"
        }
      ],
      "name": "bookKeys",
      "outputs": [
        {
          "internalType": "bytes32",
          "name": "",
          "type": "bytes32"
        }
      ],
      "stateMutability": "view",
      "type": "function"
    },
    {
      "inputs": [
        {
          "internalType": "bytes32",
          "name": "",
          "type": "bytes32"
        }
      ],
      "name": "books",
      "outputs": [
        {
          "internalType": "string",
          "name": "title",
          "type": "string"
        },
        {
          "internalType": "uint8",
          "name": "copies",
          "type": "uint8"
        }
      ],
      "stateMutability": "view",
      "type": "function"
    },
    {
      "inputs": [
        {
          "internalType": "bytes32",
          "name": "_bookId",
          "type": "bytes32"
        }
      ],
      "name": "borrowBook",
      "outputs": [],
      "stateMutability": "nonpayable",
      "type": "function"
    },
    {
      "inputs": [],
      "name": "getBookKeysLength",
      "outputs": [
        {
          "internalType": "uint256",
          "name": "length",
          "type": "uint256"
        }
      ],
      "stateMutability": "view",
      "type": "function"
    },
    {
      "inputs": [
        {
          "internalType": "bytes32",
          "name": "_bookId",
          "type": "bytes32"
        }
      ],
      "name": "getBorrowers",
      "outputs": [
        {
          "internalType": "address[]",
          "name": "",
          "type": "address[]"
        }
      ],
      "stateMutability": "view",
      "type": "function"
    },
    {
      "inputs": [],
      "name": "owner",
      "outputs": [
        {
          "internalType": "address",
          "name": "",
          "type": "address"
        }
      ],
      "stateMutability": "view",
      "type": "function"
    },
    {
      "inputs": [],
      "name": "renounceOwnership",
      "outputs": [],
      "stateMutability": "nonpayable",
      "type": "function"
    },
    {
      "inputs": [
        {
          "internalType": "bytes32",
          "name": "_bookId",
          "type": "bytes32"
        }
      ],
      "name": "returnBook",
      "outputs": [],
      "stateMutability": "nonpayable",
      "type": "function"
    },
    {
      "inputs": [
        {
          "internalType": "address",
          "name": "newOwner",
          "type": "address"
        }
      ],
      "name": "transferOwnership",
      "outputs": [],
      "stateMutability": "nonpayable",
      "type": "function"
    }
  ],
  "bytecode": "0x608060405234801561001057600080fd5b5061002d61002261003260201b60201c565b61003a60201b60201c565b6100fe565b600033905090565b60008060009054906101000a900473ffffffffffffffffffffffffffffffffffffffff169050816000806101000a81548173ffffffffffffffffffffffffffffffffffffffff021916908373ffffffffffffffffffffffffffffffffffffffff1602179055508173ffffffffffffffffffffffffffffffffffffffff168173ffffffffffffffffffffffffffffffffffffffff167f8be0079c531659141344cd1fd0a4f28419497f9722a3daafe3b4186f6b6457e060405160405180910390a35050565b6119458061010d6000396000f3fe608060405234801561001057600080fd5b506004361061009e5760003560e01c80638da5cb5b116100665780638da5cb5b14610148578063a63ac38e14610166578063d25a434814610182578063dae47ab01461019e578063f2fde38b146101ce5761009e565b80630c0dee70146100a357806312775c16146100d457806337f9bf11146100f057806357bf2a2114610120578063715018a61461013e575b600080fd5b6100bd60048036038101906100b89190610d08565b6101ea565b6040516100cb929190610de1565b60405180910390f35b6100ee60048036038101906100e99190610d08565b6102a3565b005b61010a60048036038101906101059190610d08565b610458565b6040516101179190610f01565b60405180910390f35b6101286104fc565b6040516101359190610f3c565b60405180910390f35b610146610509565b005b61015061051d565b60405161015d9190610f66565b60405180910390f35b610180600480360381019061017b91906110e2565b610546565b005b61019c60048036038101906101979190610d08565b610790565b005b6101b860048036038101906101b3919061116a565b610a26565b6040516101c591906111a6565b60405180910390f35b6101e860048036038101906101e391906111ed565b610a4a565b005b600260205280600052604060002060009150905080600001805461020d90611249565b80601f016020809104026020016040519081016040528092919081815260200182805461023990611249565b80156102865780601f1061025b57610100808354040283529160200191610286565b820191906000526020600020905b81548152906001019060200180831161026957829003601f168201915b5050505050908060010160009054906101000a900460ff16905082565b80600360003373ffffffffffffffffffffffffffffffffffffffff1673ffffffffffffffffffffffffffffffffffffffff168152602001908152602001600020600082815260200190815260200160002060009054906101000a900460ff16610341576040517f08c379a0000000000000000000000000000000000000000000000000000000008152600401610338906112c6565b60405180910390fd5b60026000838152602001908152602001600020600101600081819054906101000a900460ff168092919061037490611315565b91906101000a81548160ff021916908360ff160217905550506000600360003373ffffffffffffffffffffffffffffffffffffffff1673ffffffffffffffffffffffffffffffffffffffff168152602001908152602001600020600084815260200190815260200160002060006101000a81548160ff0219169083151502179055507f6a9475be58d7e47a413a9ecff4eb692ddefebc8eb1d6ea178ef77b5ac0bf782482336002600086815260200190815260200160002060010160009054906101000a900460ff1660405161044c93929190611379565b60405180910390a15050565b6060600260008381526020019081526020016000206002018054806020026020016040519081016040528092919081815260200182805480156104f057602002820191906000526020600020905b8160009054906101000a900473ffffffffffffffffffffffffffffffffffffffff1673ffffffffffffffffffffffffffffffffffffffff16815260200190600101908083116104a6575b50505050509050919050565b6000600180549050905090565b610511610acd565b61051b6000610b4b565b565b60008060009054906101000a900473ffffffffffffffffffffffffffffffffffffffff16905090565b61054e610acd565b60008260405160200161056191906113ec565b60405160208183030381529060405280519060200120905060006002600083815260200190815260200160002060010160009054906101000a900460ff1660ff16111561065557816002600083815260200190815260200160002060010160008282829054906101000a900460ff166105da9190611403565b92506101000a81548160ff021916908360ff1602179055507f1f047c6a3197254c47247176035ab9f56e420d0af37aa4fa7dd81c3f3587041b81846002600085815260200190815260200160002060010160009054906101000a900460ff1660405161064893929190611438565b60405180910390a161078b565b60405180606001604052808481526020018360ff168152602001600067ffffffffffffffff81111561068a57610689610f8b565b5b6040519080825280602002602001820160405280156106b85781602001602082028036833780820191505090505b508152506002600083815260200190815260200160002060008201518160000190816106e49190611618565b5060208201518160010160006101000a81548160ff021916908360ff1602179055506040820151816002019080519060200190610722929190610c17565b5090505060018190806001815401808255809150506001900390600052602060002001600090919091909150557f35a74433f2efe1b7f26383028ef96ad971721b608e1387507768486e938fc16681848460405161078293929190611438565b60405180910390a15b505050565b80600360003373ffffffffffffffffffffffffffffffffffffffff1673ffffffffffffffffffffffffffffffffffffffff168152602001908152602001600020600082815260200190815260200160002060009054906101000a900460ff161561082f576040517f08c379a00000000000000000000000000000000000000000000000000000000081526004016108269061175c565b60405180910390fd5b60006002600083815260200190815260200160002060010160009054906101000a900460ff1660ff1611610898576040517f08c379a000000000000000000000000000000000000000000000000000000000815260040161088f906117c8565b60405180910390fd5b60026000838152602001908152602001600020600101600081819054906101000a900460ff16809291906108cb906117e8565b91906101000a81548160ff021916908360ff1602179055505060026000838152602001908152602001600020600201339080600181540180825580915050600190039060005260206000200160009091909190916101000a81548173ffffffffffffffffffffffffffffffffffffffff021916908373ffffffffffffffffffffffffffffffffffffffff1602179055506001600360003373ffffffffffffffffffffffffffffffffffffffff1673ffffffffffffffffffffffffffffffffffffffff168152602001908152602001600020600084815260200190815260200160002060006101000a81548160ff0219169083151502179055507f6e7784ea4d6227a58ce4d6f663bf80bb47dfa6567a1ddb5b9b2ddaab1aed6dbc82336002600086815260200190815260200160002060010160009054906101000a900460ff16604051610a1a93929190611379565b60405180910390a15050565b60018181548110610a3657600080fd5b906000526020600020016000915090505481565b610a52610acd565b600073ffffffffffffffffffffffffffffffffffffffff168173ffffffffffffffffffffffffffffffffffffffff1603610ac1576040517f08c379a0000000000000000000000000000000000000000000000000000000008152600401610ab890611883565b60405180910390fd5b610aca81610b4b565b50565b610ad5610c0f565b73ffffffffffffffffffffffffffffffffffffffff16610af361051d565b73ffffffffffffffffffffffffffffffffffffffff1614610b49576040517f08c379a0000000000000000000000000000000000000000000000000000000008152600401610b40906118ef565b60405180910390fd5b565b60008060009054906101000a900473ffffffffffffffffffffffffffffffffffffffff169050816000806101000a81548173ffffffffffffffffffffffffffffffffffffffff021916908373ffffffffffffffffffffffffffffffffffffffff1602179055508173ffffffffffffffffffffffffffffffffffffffff168173ffffffffffffffffffffffffffffffffffffffff167f8be0079c531659141344cd1fd0a4f28419497f9722a3daafe3b4186f6b6457e060405160405180910390a35050565b600033905090565b828054828255906000526020600020908101928215610c90579160200282015b82811115610c8f5782518260006101000a81548173ffffffffffffffffffffffffffffffffffffffff021916908373ffffffffffffffffffffffffffffffffffffffff16021790555091602001919060010190610c37565b5b509050610c9d9190610ca1565b5090565b5b80821115610cba576000816000905550600101610ca2565b5090565b6000604051905090565b600080fd5b600080fd5b6000819050919050565b610ce581610cd2565b8114610cf057600080fd5b50565b600081359050610d0281610cdc565b92915050565b600060208284031215610d1e57610d1d610cc8565b5b6000610d2c84828501610cf3565b91505092915050565b600081519050919050565b600082825260208201905092915050565b60005b83811015610d6f578082015181840152602081019050610d54565b60008484015250505050565b6000601f19601f8301169050919050565b6000610d9782610d35565b610da18185610d40565b9350610db1818560208601610d51565b610dba81610d7b565b840191505092915050565b600060ff82169050919050565b610ddb81610dc5565b82525050565b60006040820190508181036000830152610dfb8185610d8c565b9050610e0a6020830184610dd2565b9392505050565b600081519050919050565b600082825260208201905092915050565b6000819050602082019050919050565b600073ffffffffffffffffffffffffffffffffffffffff82169050919050565b6000610e6882610e3d565b9050919050565b610e7881610e5d565b82525050565b6000610e8a8383610e6f565b60208301905092915050565b6000602082019050919050565b6000610eae82610e11565b610eb88185610e1c565b9350610ec383610e2d565b8060005b83811015610ef4578151610edb8882610e7e565b9750610ee683610e96565b925050600181019050610ec7565b5085935050505092915050565b60006020820190508181036000830152610f1b8184610ea3565b905092915050565b6000819050919050565b610f3681610f23565b82525050565b6000602082019050610f516000830184610f2d565b92915050565b610f6081610e5d565b82525050565b6000602082019050610f7b6000830184610f57565b92915050565b600080fd5b600080fd5b7f4e487b7100000000000000000000000000000000000000000000000000000000600052604160045260246000fd5b610fc382610d7b565b810181811067ffffffffffffffff82111715610fe257610fe1610f8b565b5b80604052505050565b6000610ff5610cbe565b90506110018282610fba565b919050565b600067ffffffffffffffff82111561102157611020610f8b565b5b61102a82610d7b565b9050602081019050919050565b82818337600083830152505050565b600061105961105484611006565b610feb565b90508281526020810184848401111561107557611074610f86565b5b611080848285611037565b509392505050565b600082601f83011261109d5761109c610f81565b5b81356110ad848260208601611046565b91505092915050565b6110bf81610dc5565b81146110ca57600080fd5b50565b6000813590506110dc816110b6565b92915050565b600080604083850312156110f9576110f8610cc8565b5b600083013567ffffffffffffffff81111561111757611116610ccd565b5b61112385828601611088565b9250506020611134858286016110cd565b9150509250929050565b61114781610f23565b811461115257600080fd5b50565b6000813590506111648161113e565b92915050565b6000602082840312156111805761117f610cc8565b5b600061118e84828501611155565b91505092915050565b6111a081610cd2565b82525050565b60006020820190506111bb6000830184611197565b92915050565b6111ca81610e5d565b81146111d557600080fd5b50565b6000813590506111e7816111c1565b92915050565b60006020828403121561120357611202610cc8565b5b6000611211848285016111d8565b91505092915050565b7f4e487b7100000000000000000000000000000000000000000000000000000000600052602260045260246000fd5b6000600282049050600182168061126157607f821691505b6020821081036112745761127361121a565b5b50919050565b7f596f7520686176656e277420626f72726f776564207468617420626f6f6b2100600082015250565b60006112b0601f83610d40565b91506112bb8261127a565b602082019050919050565b600060208201905081810360008301526112df816112a3565b9050919050565b7f4e487b7100000000000000000000000000000000000000000000000000000000600052601160045260246000fd5b600061132082610dc5565b915060ff8203611333576113326112e6565b5b600182019050919050565b6000819050919050565b600061136361135e61135984610dc5565b61133e565b610f23565b9050919050565b61137381611348565b82525050565b600060608201905061138e6000830186611197565b61139b6020830185610f57565b6113a8604083018461136a565b949350505050565b600081905092915050565b60006113c682610d35565b6113d081856113b0565b93506113e0818560208601610d51565b80840191505092915050565b60006113f882846113bb565b915081905092915050565b600061140e82610dc5565b915061141983610dc5565b9250828201905060ff811115611432576114316112e6565b5b92915050565b600060608201905061144d6000830186611197565b818103602083015261145f8185610d8c565b905061146e604083018461136a565b949350505050565b60008190508160005260206000209050919050565b60006020601f8301049050919050565b600082821b905092915050565b6000600883026114d87fffffffffffffffffffffffffffffffffffffffffffffffffffffffffffffffff8261149b565b6114e2868361149b565b95508019841693508086168417925050509392505050565b600061151561151061150b84610f23565b61133e565b610f23565b9050919050565b6000819050919050565b61152f836114fa565b61154361153b8261151c565b8484546114a8565b825550505050565b600090565b61155861154b565b611563818484611526565b505050565b5b818110156115875761157c600082611550565b600181019050611569565b5050565b601f8211156115cc5761159d81611476565b6115a68461148b565b810160208510156115b5578190505b6115c96115c18561148b565b830182611568565b50505b505050565b600082821c905092915050565b60006115ef600019846008026115d1565b1980831691505092915050565b600061160883836115de565b9150826002028217905092915050565b61162182610d35565b67ffffffffffffffff81111561163a57611639610f8b565b5b6116448254611249565b61164f82828561158b565b600060209050601f8311600181146116825760008415611670578287015190505b61167a85826115fc565b8655506116e2565b601f19841661169086611476565b60005b828110156116b857848901518255600182019150602085019450602081019050611693565b868310156116d557848901516116d1601f8916826115de565b8355505b6001600288020188555050505b505050505050565b7f596f752063616e6e6f7420626f72726f772061206d6f7265207468616e206f6e60008201527f6520636f70792100000000000000000000000000000000000000000000000000602082015250565b6000611746602783610d40565b9150611751826116ea565b604082019050919050565b6000602082019050818103600083015261177581611739565b9050919050565b7f5468657265206172656e277420617661696c61626c6520636f70696573210000600082015250565b60006117b2601e83610d40565b91506117bd8261177c565b602082019050919050565b600060208201905081810360008301526117e1816117a5565b9050919050565b60006117f382610dc5565b915060008203611806576118056112e6565b5b600182039050919050565b7f4f776e61626c653a206e6577206f776e657220697320746865207a65726f206160008201527f6464726573730000000000000000000000000000000000000000000000000000602082015250565b600061186d602683610d40565b915061187882611811565b604082019050919050565b6000602082019050818103600083015261189c81611860565b9050919050565b7f4f776e61626c653a2063616c6c6572206973206e6f7420746865206f776e6572600082015250565b60006118d9602083610d40565b91506118e4826118a3565b602082019050919050565b60006020820190508181036000830152611908816118cc565b905091905056fea264697066735822122094afe0549eb38c08518b5723ce80aa1a27b5d6d40395048157268a882ecf5ff664736f6c63430008130033",
  "linkReferences": {},
  "deployedLinkReferences": {}
}